:020000040800F2
:10000000FCFF00201D24000001240000012400004A
:10001000012400000124000001240000012400004C
:10002000012400000124000001240000012400003C
:10003000012400000124000001240000012400002C
:10004000012400000124000001240000012400001C
:10005000012400000124000001240000012400000C
:1000600001240000012400000124000001240000FC
:1000700001240000012400000124000001240000EC
:1000800001240000012400000124000001240000DC
:1000900001240000012400000124000001240000CC
:1000A00001240000012400000124000001240000BC
:1000B00001240000012400000124000001240000AC
:1000C000012400000124000001240000012400009C
:1000D000012400000124000001240000012400008C
:1000E000012400000124000001240000012400007C
:1000F000012400000124000001240000012400006C
:10010000012400000124000001240000012400005B
:10011000012400000124000001240000012400004B
:10012000012400000124000001240000012400003B
:10013000012400000124000001240000012400002B
:10014000012400000124000001240000012400001B
:1001500081B000F218010A68C2F3400181F0010188
:10016000C9B2C8B201B0704781B000F214010A6888
:1001700000F218010968090442EA0101084601B0C9
:100180007047FFFF81B00249086001B0704700BFAF
:10019000A081224281B00249086001B0704700BFCF
:1001A000A481224281B00249086001B0704700BFBB
:1001B000A881224281B00249086001B0704700BFA7
:1001C0009401214281B00249086001B0704700BF2C
:1001D0009C81214281B00249086001B0704700BF94
:1001E0009881214281B00249086001B0704700BF88
:1001F0008001214281B00249086001B0704700BF10
:10020000B481224281B00249086001B0704700BF4A
:100210008801224281B00249086001B0704700BFE6
:100220009001214281B00249086001B0704700BFCF
:10023000B001224281B00249086001B0704700BF9E
:10024000AC01224281B00249086001B0704700BF92
:10025000A801224281B00249086001B0704700BF86
:100260009881214281B00249086001B0704700BF07
:100270009481224281B00249086001B0704700BFFA
:100280009881224281B0CDF800E00B46FFF76CFF69
:1002900000EA03029A4240F2000200D10122D0B2E9
:1002A000DDF800E001B0704781B0CDF800E04FF01C
:1002B00000021949884207D118490B6818490A6891
:1002C00018490A601C460BE01749884207D11749B4
:1002D0000B6817490A6813490A601C4600E0144677
:1002E00014490C6003461846FFF732FF70B91149F4
:1002F000096851B12CB905200A4C2468A047002098
:1003000005E0611E08460446FFE7ECE70120DDF842
:1003100000E001B0704700BF0054004050000020D2
:10032000BC000020B800002000580040540000200D
:10033000C00000205800002081B00249086001B0D0
:10034000704700BF9C81214281B00249086001B022
:10035000704700BFB081224281B00249086001B0FD
:10036000704700BFA801224281B00249086001B075
:10037000704700BFB881224281B00249086001B0D5
:10038000704700BF8C01224281B00249086001B071
:10039000704700BFB081224281B00249086001B0BD
:1003A000704700BFB001224281B00249086001B02D
:1003B000704700BFAC01224281B00248006801B022
:1003C000704700BFB400002083B0CDF800E000F01B
:1003D000FF031A09104603F00F02134614E0194AEE
:1003E00002921FE0184A02921CE0184A029219E099
:1003F000174A029216E0174A029213E0164A029236
:1004000010E0164A02920DE00028E8D00128E9D059
:100410000228EAD00328EBD00428ECD00528EDD040
:100420000628EED0012212B29A40ADF804200298BC
:100430000A46BDF8041000F0E7FDDDF800E003B067
:10044000704700BF00080140000C0140001001404F
:100450000014014000180140001C01400020014030
:1004600081B00168C1F3801001B0704782B0CDF84F
:1004700000E0034619460191FFF79EFF40F2E83184
:1004800000FB01F201990A601F490978C1F30311C9
:10049000C8B21E4909180878C0B21A1D1968C140AF
:1004A000116019490988C1F3022188B21749091856
:1004B0000878C0B203F20802191D0968C140116032
:1004C00011490988C1F3C22188B210490918087876
:1004D000C0B203F20C02191D0968C14011600A493B
:1004E0000988C1F3813188B2094909180978C8B26D
:1004F00003F2100203F20C010968B1FBF0F1116084
:10050000DDF800E002B0704704100240E12700006F
:100510000C28000081B0194900EA010108460022B8
:100520000EE0042022E0082020E010201EE0202021
:100530001CE040201AE0802018E040F2001015E096
:100540000F498842EDD00F498842ECD00E498842CD
:10055000EBD00E498842EAD00D498842E9D00D49D6
:100560008842E8D00C498842E7D010460B49096818
:1005700041EA000209490A6001B0704700FCFFFF30
:1005800000080140000C014000100140001401402F
:1005900000180140001C01400020014018100240DA
:1005A00082B0CDF800E0029E4FF00005564CA0420C
:1005B00006D1564C2768564C2568564C25600AE0F3
:1005C000554CA04206D1554C2768554C2568514CD6
:1005D000256000E02F46534C276000F210054C00C8
:1005E000A4B22C60B9460746904635461E464E4991
:1005F0003846FFF747FE88B94A4C24686CB1B9F118
:10060000000F06D10420434C2468A0474FF6FF702A
:1006100076E0A9F101008146FFE7E8E700200197B5
:1006200029463746019E7C1EA04226D206F21005BE
:1006300008EB000424782C603A4CD4F800908246F1
:100640000D463A493046FFF71DFE88B9354C2468FF
:100650006CB1B9F1000F06D104202E4C2468A047DC
:100660004FF6FF704CE0A9F101008146FFE7E8E793
:100670000AF1010420462946D5E706F2100508EBE9
:10068000000424782C60274C27680D462849304602
:10069000FFF7F8FD70B9234C246854B137B9042032
:1006A0001C4C2468A0474FF6FF7029E0781E0746CF
:1006B000FFE7EBE7012D05D10125346865F34924F7
:1006C00034601CE00125346865F308243460154C5F
:1006D0002768354617492846FFF7D4FD78B9114CED
:1006E00024685CB137B904200A4C2468A0474FF64F
:1006F000FF7005E07C1E20460746FFE7EAE7002082
:10070000DDF800E002B070470054004050000020C7
:10071000BC000020B8000020005800405400002019
:10072000C000002058000020820007008000070061
:10073000840007000100030083B0CDF800E0034609
:100740004FF0000026498B4206D126490C68264905
:100750000A6826490A600BE025498B4207D12549E2
:10076000086825490A6821490A60044600E00446F1
:1007700022490C60019402931846FFF795FD029BF5
:10078000019C10B94FF6FF7025E00122196862F351
:100790000821196003F214010A68C2F3402111B163
:1007A0004FF6FF7017E025461C4615492046FFF717
:1007B00069FD78B91149096859B135B906200B4C62
:1007C0002468A0474FF6FF7005E0691E08460546FD
:1007D000FFE7EAE70020DDF800E003B0704700BF64
:1007E0000054004050000020BC000020B800002051
:1007F0000058004054000020C00000205800002095
:100800000100030082B0CDF800E0CFB20146984667
:10081000029B4FF000064FF00005C44CA14207D1E7
:10082000C34CD4F80090C34C2568C34C25600BE042
:10083000C24CA14207D1C24C2068C24C2568BE4CB4
:100840002560814600E0A946BF4CC4F80090F4E161
:1008500001F210057C00A4B244F00104A4B22C60A3
:10086000019616464F46019A01F214042568C5F315
:10087000400464B9B44C246844B127B90320AE4C99
:100880002468A047E2E1781E0746FFE7ECE7002571
:100890000C6865F38A240C6001F21404206800BF20
:1008A00001F218042468240440EA04042046012BC1
:1008B00005D101250C6865F349240C6004E001258D
:1008C0000C6865F308240C609F4C25689146984697
:1008D00037460E469D493046FFF7D4FC68B99A4C1E
:1008E00024684CB125B90320934C2468A047ADE19E
:1008F0006C1E20460546FFE7ECE707EB090506F20C
:10090000100424682C70B8F1010F13D18E4C2168AB
:1009100030460568C5F340245CB98B4C24683CB173
:1009200021B90320844C2468A0478FE1491EFFE7CA
:10093000EFE712E0844C216830460568C5F30024D7
:100940005CB9814C24683CB121B903207A4C2468FD
:10095000A0477BE1491EFFE7EFE777E101250C683F
:1009600065F38A240C6001250C6865F3CB240C60C8
:1009700001F210057C00A4B244F00104A4B22C6082
:100980004F4601F214042568C5F3400464B96E4C67
:10099000246844B127B90320674C2468A04755E177
:1009A000781E0746FFE7ECE701F21404206800BF59
:1009B00001F2180424682404204300250C6865F320
:1009C0008A240C60604C276801F214042568C5F382
:1009D000800464B95C4C246844B127B90320564CA8
:1009E0002468A04732E1781E0746FFE7ECE7012BB9
:1009F00005D101250C6865F349240C6004E001254C
:100A00000C6865F308240C60951901F21004246841
:100A10002C70741C151901F2100424682C70012B21
:100A200014D1494C22680D68C5F3402464B9464C82
:100A3000246844B122B903203F4C2468A04705E153
:100A4000501E0246FFE7EEE7084613E03E4C2268E0
:100A50000D68C5F3002464B93B4C246844B122B945
:100A60000320354C2468A047F0E0501E0246FFE703
:100A7000EEE708460025046865F3CB240460E5E052
:100A800001250C6865F38A240C6001F210057C00D6
:100A9000A4B244F00104A4B22C604646C84689467C
:100AA00017461D462A494846FFF7ECFB78B9264C05
:100AB00024685CB1B8F1000F04D103201E4C2468F7
:100AC000A047C3E0A8F101008046FFE7EAE7002164
:100AD000A8464A46B1463B46A9F10304A14222D2A8
:100AE000194C25688A4617461E4618493846FFF7AE
:100AF000C9FB60B9144C246844B125B903200E4CDD
:100B00002468A047A2E0681E0546FFE7EDE706EB74
:100B10000A0507F2100424682C700AF1010421462A
:100B200033463A46D8E7084C00F014B80054004069
:100B300050000020BC000020B800002000580040F9
:100B400054000020C0000020580000204000030096
:100B500002000300276801930B461646424601999E
:100B600006F214042568C5F3800464B9394C24687E
:100B700044B127B90320384C2468A04766E0781EAA
:100B80000746FFE7ECE70025346865F38A24346004
:100B9000CD1806F2100424682C70581C2D4C2368C4
:100BA0001746024606F214042568C5F3800464B9AA
:100BB000284C246844B123B90320274C2468A0475B
:100BC00044E0581E0346FFE7ECE7012F07D101255B
:100BD000346865F3492434601046324621E001252B
:100BE000346865F3082434601A4CD4F80080174642
:100BF0000D461A493046FFF745FB78B9154C246875
:100C00005CB1B8F1000F04D10320134C2468A04755
:100C10001CE0A8F101008046FFE7EAE729463246DA
:100C200038460D1802F2100424682C70441C0D196B
:100C300002F2100424682C7008E0B8F1010F3FF4B0
:100C400007AEB8F1020F3FF489AE19E7DDF800E016
:100C500002B0704758000020B800002001000300D7
:100C600081B00168C1F3401001B0704781B00268E3
:100C7000C2F3401101B9FAE7011D096888B201B059
:100C80007047FFFF81B0CDF800E0012252B23E492B
:100C90000A6000F268010B686FF0006103EA01026C
:100CA000144603F00061C90E0B4602F00041B1F199
:100CB000004F02D135490A6801E035490A6804F459
:100CC0007021090C0E464FF6FF7104EA01010D4632
:100CD00004F44011B1F5401F0DD16FF0706102EACC
:100CE00001010E462A490A686FF070610A402849DE
:100CF0000A60324616E004F48011B1F5801F09D174
:100D00004FF00301B140C94302EA010141F07061B3
:100D10000A4607E0610D090105FA01F1C9430A40DD
:100D200042F070622BB1610D090105FA01F10A432D
:100D3000FFE704F00041B1F1004F02D113490A600E
:100D400001E013490A6040F2000A81464FEA8A0135
:100D500009EB01010968B1F1FF3F10D009F134013D
:100D60004FEA8A03C91809680A4609EB03010968B2
:100D700008461146FFF728FB0AF1010AE6E7DDF80D
:100D800000E001B0704700BF000342421C00014078
:100D90000400014081B0CDF800E00348FFF760FB9C
:100DA000DDF800E001B07047004C004081B0CDF8A4
:100DB00000E00348FFF754FBDDF800E001B07047A6
:100DC0000048004088B0CDF800E00E46554B9842F0
:100DD0000DD1012464B2544B1C60544C544B1C6024
:100DE000544C554B1C60554C554B1C600FE0554BFB
:100DF00098420CD1012464B2534B1C60534C4C4BB1
:100E00001C60534C4C4B1C60524C4D4B1C6001966B
:100E100002901046FFF736FF0298019E031D1B68E3
:100E20009CB26FF03F0304EA03039DB203AB019051
:100E30001846FFF71BFB0198059F059C464BB4FB2A
:100E4000F3F399B29BB245EA0304A4B2031D1C60FC
:100E50000024036864F30003036000223F4B9E42BA
:100E600012D87300B7FBF3F4A4B2042C02D204230B
:100E70001C46FFE742EA04039AB200F220044B1C2E
:100E80009BB2236091B23FE0032306FB03F4B7FB60
:100E9000F4F31FFA83F8192306FB03F5B7FBF5F308
:100EA0001FFA83F908FB04F409FB05F33C1BFB1A4A
:100EB0009C4205D203237343B7FBF3F4A4B206E0CC
:100EC00019237343B7FBF3F4A4B244F4804440F60F
:100ED000FF7304EA030313B944F00104FFE744F489
:100EE00000439BB21A4392B200F2200540F22C1349
:100EF00001FB03F4A4B240F2E833B4FBF3F39BB27A
:100F00005B1C9BB22B6091B200F21C0319600023A2
:100F100003600124036864F300030360DDF800E06C
:100F200008B0704700540040D4034242A5120000AC
:100F3000C400002001130000C8000020811200003E
:100F4000CC00002000580040D8034242C10F0000EE
:100F5000BD1200005D12000040420F00A08601009B
:100F600081B0CDF800E00348FFF77AFEDDF800E03D
:100F700001B07047004C004081B0CDF800E003485C
:100F8000FFF774FEDDF800E001B07047004C004050
:100F900081B0CDF800E00348FFF762FADDF800E029
:100FA00001B070470038014081B0CDF800E003483F
:100FB000FFF75CFEDDF800E001B070470044004040
:100FC00081B0CDF800E00348FFF7B6FBDDF800E0A4
:100FD00001B070470058004081B0CDF800E00348F0
:100FE000FFF73EFEDDF800E001B070470038014039
:100FF00081B0CDF800E00348FFF738FEDDF800E0EF
:1010000001B070470038014081B0CDF800E08CB2EB
:101010001546774B00EA03031E461846FFF77AFA97
:10102000B4F1FF0F0CD1734B9D4203D14FF033331A
:101030003360D9E0422D03D14FF044333360D3E025
:101040004FF6FF739C4214D16A4B9D4207D14FF07B
:1010500033333360341D4FF033332360C4E0422D0B
:1010600007D14FF044333360341D4FF044332360D5
:10107000BAE00021002005F001030BB100211DE0C2
:1010800005F0020333B105F4C0730BB1082100E091
:10109000042113E005F0040333B105F020030BB184
:1010A000042100E0002109E005F0080333B105F058
:1010B00020030BB10C2100E00821FFE74E4B05EAAD
:1010C00003030BB1032009E005F400730BB1022008
:1010D00004E005F480630BB10120FFE705F00C0389
:1010E0000BB10143FFE704F0FF039BB2002B3BD0A1
:1010F000376800201FFA84F832462E4608282CD282
:101100004FF0010303FA00F408EA0403A34222D1DA
:1011100085004FF00F03AB40DB4307EA030401FAFD
:1011200005F344EA03031D4606F48173B3F5817F9A
:1011300005D102F214044FF001038340236006F04E
:101140008203822B05D102F210044FF00103834089
:1011500023602F46FFE7401CD0E717601FFA88F096
:101160000F463146164602E00F462946A0B2B0F1BE
:10117000FF0F39D9331DD3F800800022082A30D25E
:1011800002F208044FF0010303FA04F400EA040336
:10119000A34224D195004FF00F03AB40DB4308EA94
:1011A000030807FA05F348EA030801F48173B3F56D
:1011B000817F07D106F2140502F208044FF0010303
:1011C000A3402B6001F08203822B07D106F21005A9
:1011D00002F208044FF00103A3402B60FFE7521C0A
:1011E000CCE7331DC3F80080DDF800E001B07047A4
:1011F00000FCFFFF140008000008080081B0CDF8D3
:1012000000E00348FFF72CFDDDF800E001B0704777
:101210000048004081B0CDF800E00348FFF726FD0C
:10122000DDF800E001B070470048004081B0CDF823
:1012300000E00348FFF714FDDDF800E001B070475F
:101240000044004081B0CDF800E00348FFF708F902
:10125000DDF800E001B070470044004081B0CDF8F7
:1012600000E008B413460A46C1B20448FFF798F9F3
:1012700001B0DDF800E001B0704700BF0058004049
:1012800081B0CDF800E008B413460A46C1B2044864
:10129000FFF786F901B0DDF800E001B0704700BF4C
:1012A0000054004081B0CDF800E00348FFF744FA55
:1012B000DDF800E001B070470054004081B0CDF887
:1012C00000E008B413460A46C1B20448FFF79AFA90
:1012D00001B0DDF800E001B0704700BF00580040E9
:1012E00081B0ADF800100146BDF800000B68C3F3F3
:1012F000C01202B9FAE70A1D106001B07047FFFF83
:1013000081B0CDF800E008B413460A46C1B20448E3
:10131000FFF778FA01B0DDF800E001B0704700BFD8
:101320000054004081B0CDF800E00348FFF798F882
:10133000DDF800E001B070470050004081B0CDF80A
:1013400000E00348FFF78CFCDDF800E001B07047D7
:101350000050004081B0CDF800E00348FFF786FC64
:10136000DDF800E001B070470050004089B0CDF8D2
:1013700000E0834698B28C46BDF824100A9E04AC67
:10138000ADF80410ADF808002046FFF76FF8BDF87F
:101390000800BDF80410644CA34512D101256DB2BC
:1013A000624C2560624D634C2560634D634C256043
:1013B000634D644C2560644D644C2560079C039428
:1013C00056E0634CA34512D101256DB2614C2560F6
:1013D000614D584C2560614D584C2560604D594C0D
:1013E0002560604D594C2560069C039440E05E4C9E
:1013F000A34512D101256DB25C4C25605C4D4D4C6E
:1014000025605C4D4D4C25605B4D4E4C25605B4D21
:101410004E4C2560069C03942AE0594CA34512D1FA
:1014200001256DB2574C2560574D424C2560574DF4
:10143000424C2560564D434C2560564D434C25602B
:10144000069C039414E0544CA34511D101256DB2C0
:10145000524C2560524D374C2560524D374C25601B
:10146000514D384C2560514D384C2560069C0394F5
:10147000ADF80410ADF808003046FFF703FCBDF8E6
:101480000800BDF804100BF1100500242C600BF1CE
:1014900010052C680C432C600BF10C0500242C600B
:1014A00018B140F4806080B2FFE70BF10C052C68A6
:1014B00004432C600BF10C060125346865F34D34B0
:1014C00034600BF10C060125346865F3C304346005
:1014D0000BF10C060125346865F3820434600BF1CE
:1014E000140500242C60039D192465434FEA8C04E5
:1014F000B5FBF4F76424B7FBF4F426013509642442
:101500006C433C1B240104F232056424B5FBF4F463
:1015100004F00F0446EA04040BF10805A4B22C60A1
:10152000DDF800E009B0704700380140380342425E
:1015300011160000D0000020F10F0000D4000020A0
:10154000D90F0000D8000020910F0000DC0000201F
:1015500000440040C403424249160000A90F0000A5
:101560002D1200004512000000480040C80342420E
:101570002D16000015120000FD110000AD0D000039
:10158000004C0040CC034242CD150000790F000012
:10159000610F0000950D000000500040D003424252
:1015A000B1150000551300003D1300002513000085
:1015B00081B0CDF800E081B20348FFF791FEDDF87D
:1015C00000E001B0704700BF0050004081B0CDF88E
:1015D00000E081B20348FFF783FEDDF800E001B0D0
:1015E000704700BF004C004081B0CDF800E0019D85
:1015F0002C4610B408B493B28AB201460348FFF7F0
:10160000B5FE02B0DDF800E001B0704700480040D0
:1016100081B0CDF800E081B20348FFF761FEDDF84C
:1016200000E001B0704700BF0038014081B0CDF844
:1016300000E081B20348FFF753FEDDF800E001B09F
:10164000704700BF0048004081B0CDF800E081B293
:101650000348FFF745FEDDF800E001B0704700BF2A
:101660000044004082B0CDF800E040F20004ADF844
:101670000440044C2468A047BDF90400DDF800E0F4
:1016800002B07047A400002082B0CDF800E040F224
:101690000004ADF80440064C2468A047BDF90410CE
:1016A00041EA000000B2DDF800E002B0704700BF80
:1016B000A000002081B0CDF800E00A4601460348B2
:1016C000FFF780FBDDF800E001B0704700540040F8
:1016D00081B0CDF800E0019D2C4610B408B493B25F
:1016E0008AB201460348FFF741FE02B0DDF800E090
:1016F00001B070470038014082B0CDF800E040F200
:101700000004ADF80440054C2468A047BDF904402E
:10171000044320B2DDF800E002B07047A8000020CA
:1017200081B0CDF800E04FF0420289B2FFF76CFCC7
:10173000DDF800E001B0704781B0CDF800E0019D18
:101740002C4610B408B493B28AB201460348FFF79E
:101750000DFE02B0DDF800E001B07047004400402B
:1017600081B0CDF800E0044A89B2FFF74DFCDDF806
:1017700000E001B0704700BF1400080081B00A46C5
:1017800081B200208DB21146052805D20B18202207
:101790001A70401CC0B2F7E70B1800221A70401EE6
:1017A000C0B20C180A23B5FBF3F203FB125292B23B
:1017B000303222700A22B5FBF2F292B295B202B92F
:1017C00002E0401EC0B2ECE701B0704782B0CDF835
:1017D00000E001A90870FFF757FF01AA0C4909783A
:1017E0000023C8B211460122FFF786FF0DF1050262
:1017F000074909780123C8B211460122FFF732FFD9
:101800000DF105010978C8B2DDF800E002B07047BB
:101810004D00002081B0CDF800E0094902B440F24B
:10182000000340F2000240F20001FFF751FF01B057
:10183000044A05490A600020DDF800E001B0704765
:10184000F0250000111600009C00002082B0CDF8A9
:1018500000E001AA1070521C1170FFF715FF01ABD8
:10186000054A127819460123D0B20222FFF744FF3D
:10187000DDF800E002B070474D00002081B0CDF8E7
:1018800000E0094902B440F2000340F2000240F2D5
:101890000001FFF7A9FE01B0044A05490A600020D3
:1018A000DDF800E001B07047C82600002D160000EA
:1018B0009C00002081B0CDF800E0094902B440F25C
:1018C000000340F2000240F20001FFF735FF01B0D3
:1018D000044A05490A600020DDF800E001B07047C5
:1018E0005C260000491600009C00002081B00249DF
:1018F000087001B0704700BF4D00002081B0CDF8E6
:1019000000E00178CCB2A0B2034C2468A0470020CC
:10191000DDF800E001B070479C00002081B0CDF8F8
:1019200000E0094902B440F2000340F2000240F234
:101930000001FFF701FF01B0044A05490A600020D9
:10194000DDF800E001B070475C2600004916000099
:101950009C00002081B000F23003191D0A68044980
:101960000A6003F21C010A6802490A6001B070476C
:10197000AC000020B000002081B0026806490A6077
:10198000011D0A6805490A6000F208010A68044955
:101990000A6001B0704700BFA0000020A80000202E
:1019A000A400002081B0CDF800E001680846044999
:1019B000FFF780FE0020DDF800E001B0704700BFB7
:1019C0008425000081B0CDF800E0A9E0012905D10F
:1019D00040F220016548FFF7A3FE04E040F2200139
:1019E0006248FFF7BDFEBBE0012905D140F20801C6
:1019F0005F48FFF795FE04E040F208015C48FFF7FE
:101A0000AFFEADE0012905D144F200015948FFF7CE
:101A100087FE04E044F200015648FFF7A1FE9FE074
:101A2000012905D140F200415148FFF779FE04E059
:101A300040F200414E48FFF793FE91E0012905D1A5
:101A400040F600014A48FFF76BFE04E040F6000153
:101A50004748FFF785FE83E0012905D141F20001E7
:101A60004348FFF75DFE04E041F200014048FFF704
:101A700077FE75E0012905D141F200013D48FFF7ED
:101A80004FFE04E041F200013A48FFF769FE67E0CB
:101A9000012905D140F600013648FFF741FE04E078
:101AA00040F600013348FFF75BFE59E0012905D1FC
:101AB00040F240012F48FFF733FE04E040F24001BE
:101AC0002C48FFF74DFE4BE0012905D140F22001E3
:101AD0002848FFF725FE04E040F220012548FFF7E3
:101AE0003FFE3DE0012905D140F240012248FFF7C9
:101AF00017FE04E040F240011F48FFF731FE2FE0DF
:101B0000012905D140F280011B48FFF709FE04E0DE
:101B100040F280011848FFF723FE21E0012020E079
:101B200000283FF453AF01283FF45EAF02283FF492
:101B300069AF03283FF474AF04283FF47FAF052852
:101B40003FF48AAF06283FF495AF0728A0D00828B5
:101B5000ACD00928B8D00A28C4D00B28D0D0DDE7F3
:101B60000020DDF800E001B0704700BF0008014030
:101B70000010014000140140000C014081B0CDF87C
:101B800000E0A9E0012905D140F210016548FFF706
:101B9000C7FD04E040F210016248FFF7E1FDBBE041
:101BA000012905D140F204015F48FFF7B9FD04E0C7
:101BB00040F204015C48FFF7D3FDADE0012905D1F7
:101BC00042F200015948FFF7ABFD04E042F2000188
:101BD0005648FFF7C5FD9FE0012905D140F20041BD
:101BE0005148FFF79DFD04E040F200414E48FFF7E9
:101BF000B7FD91E0012905D140F600014A48FFF701
:101C00008FFD04E040F600014748FFF7A9FD83E09F
:101C1000012905D141F200014348FFF781FD04E0AD
:101C200041F200014048FFF79BFD75E0012905D115
:101C300040F201013B48FFF773FD04E040F201016F
:101C40003848FFF78DFD67E0012905D140F20041DA
:101C50003648FFF765FD04E040F200413348FFF7E6
:101C60007FFD59E0012905D140F200212F48FFF7FF
:101C700057FD04E040F200212C48FFF771FD4BE0D6
:101C8000012905D140F200112848FFF749FD04E081
:101C900040F200112548FFF763FD3DE0012905D121
:101CA00040F240012248FFF73BFD04E040F24001D2
:101CB0001F48FFF755FD2FE0012905D140F28001B3
:101CC0001B48FFF72DFD04E040F280011848FFF7A4
:101CD00047FD21E0012020E000283FF453AF012818
:101CE0003FF45EAF02283FF469AF03283FF474AFBE
:101CF00004283FF47FAF05283FF48AAF06283FF45D
:101D000095AF0728A0D00828ACD00928B8D00A2859
:101D1000C4D00B28D0D0DDE70020DDF800E001B012
:101D2000704700BF0008014000100140001401404E
:101D3000000C014081B0CDF800E00168084604497C
:101D4000FFF7B8FC0020DDF800E001B0704700BFED
:101D50008425000088B0CDF800E00390049105923E
:101D6000384B1B78D8B2FFF7C1FD01AB07930320B6
:101D7000FFF72CFD079B187001AB5B1C0793042039
:101D8000FFF724FD079B187001AB9B1C07930720EE
:101D9000FFF71CFD079B187001ABDB1C07930820A5
:101DA000FFF714FD079B187001AB1B1D079305205F
:101DB000FFF70CFD079B187001AB5B1D0793062016
:101DC000FFF704FD079B187001AD2C78039B1C8066
:101DD000039BB3F900301C02039B1C806B1C1C7816
:101DE000039BB3F9003043EA0404039B1C80AB1C43
:101DF0001C78049B1C80049BB3F900301C02049BDC
:101E00001C80EB1C1C78049BB3F9003043EA0404EB
:101E1000049B1C802B1D1C78059B1C80059BB3F923
:101E200000301C02059B1C806B1D1C78059BB3F9C0
:101E3000003043EA0404059B1C80DDF800E008B094
:101E4000704700BF4F00002088B0CDF800E003903D
:101E500004910592384B1B78D8B2FFF747FD01ABD0
:101E600007932920FFF7B2FC079B187001AB5B1C9E
:101E700007932820FFF7AAFC079B187001AB9B1C57
:101E800007932B20FFF7A2FC079B187001ABDB1C0C
:101E900007932A20FFF79AFC079B187001AB1B1DC4
:101EA00007932D20FFF792FC079B187001AB5B1D79
:101EB00007932C20FFF78AFC079B187001AD2C7844
:101EC000039B1C80039BB3F900301C02039B1C8006
:101ED0006B1C1C78039BB3F9003043EA0404039B9A
:101EE0001C80AB1C1C78049B1C80049BB3F9003045
:101EF0001C02049B1C80EB1C1C78049BB3F9003073
:101F000043EA0404049B1C802B1D1C78059B1C8049
:101F1000059BB3F900301C02059B1C806B1D1C78CF
:101F2000059BB3F9003043EA0404059B1C80DDF8EF
:101F300000E008B0704700BF4E00002081B0CDF82F
:101F400000E00E46002183B2002805DA012140425C
:101F500080B280B28FB201E098B28FB23146FFF703
:101F60000DFC06213446B8B2002908D963184A1E70
:101F700092B2A21812781A70491E89B2F4E7202290
:101F8000227070B1002081B2204642181278202AB7
:101F900002D1491C89B2F8E74A1E92B283182D2259
:101FA0001A70DDF800E001B07047FFFF82B0CDF895
:101FB00000E08DF8043003469DF80400064C2270C2
:101FC000064C20700846FFF7D7FC1846FFF7C2FC06
:101FD000DDF800E002B070474E0000204F00002006
:101FE00083B0CDF800E0024610460D228DF808209F
:101FF0000A228DF809201FE0FFF780FC23E0027819
:102000002AB10190FFF77AFC0198401CF7E71AE02B
:1020100002782AB10190FFF771FC0198401CF7E7A4
:1020200002AA1046FFF76AFC0DF109021046FFF7FD
:1020300065FC08E0062007E00029DDD00129DED09C
:102040000229E5D0F6E70020DDF800E003B0704794
:1020500081B0CDF800E08B4609E05846FFF76AFEF4
:102060000AE05846FFF79EFC06E0012004E0002845
:10207000F3D00128F5D0F8E7DDF800E001B07047B3
:1020800081B0CDF800E011E00846FFF7F7FB16E05D
:102090000846FFF70FFC12E00846FFF7BBFB0EE017
:1020A0000846FFF73BFC0AE0012008E00028EBD0DF
:1020B0000128EDD02028EFD03028F1D0F4E7DDF86A
:1020C00000E001B07047FFFF81B0CDF800E05FFA9B
:1020D00081F95FFA82FA0FE05FFA8AF15FFA89F01C
:1020E000FFF74CFD0DE05FFA8AF15FFA89F0FFF728
:1020F00069FC06E0012004E00028EDD00128F2D0C0
:10210000F8E7DDF800E001B07047FFFF81B0CDF8DF
:1021100000E01A480078FFF7E9FB27212020FFF7AD
:1021200095FB40212320FFF791FB40212420FFF75E
:102130008DFB80212E20FFF789FB11480078FFF7E7
:10214000D5FB9C210020FFF781FB20210120FFF718
:102150007DFB00210220FFF779FB48210A20FFF7D1
:1021600075FB34210B20FFF771FB33210C20FFF7A7
:102170006DFBDDF800E001B0704700BF4E000020AD
:102180004F00002081B01548006840F0010113485D
:10219000016013491348016010480168124801406A
:1021A0000E4801600D4801686FF4802001400B4823
:1021B00001600C4801686FF4FE00014009480160AD
:1021C000064801686FF0A0500140044801604FF0DC
:1021D00000010648016001B0704700BF00100240D6
:1021E0000000FFF004100240FFFFF6FE2C1002403A
:1021F00081B01CF8019B0BF8019BBBEB0A0FF8D1D7
:1022000001B07047A086010081B0CDF800E03C4AE3
:102210003C493D48FFF79EFD3C480121FFF7E0FEA9
:102220003948B0F900003A49FFF788FE01213848E3
:10223000FFF7D6FE37480121FFF7D2FE3148B0F94B
:1022400000003349FFF77AFE01213148FFF7C8FE4D
:1022500031480121FFF7C4FE2948B0F900002C499C
:10226000FFF76CFE01212A48FFF7BAFE2B48022136
:10227000FFF7B6FE2A4A2B492B48FFF7E5FD2B480E
:102280000121FFF7ADFE2848B0F900002049FFF713
:1022900055FE01211E48FFF7A3FE25480121FFF747
:1022A0009FFE2048B0F900001949FFF747FE0121C1
:1022B0001748FFF795FE1F480121FFF791FE1848C8
:1022C000B0F900001249FFF739FE01211048FFF76D
:1022D00087FE19480221FFF783FE18480221FFF705
:1022E0007FFE41F6FF27C0F2B7077F1EFDD100BF7A
:1022F00000BF00BF00BF00BFDDF800E001B07047C5
:10230000600000205E0000205C000020140000201F
:1023100062000020260000202A0000202E0000205D
:10232000980000209600002094000020300000203B
:102330004100002045000020490000204B00002003
:1023400081B0CDF800E0012207210020FFF7BCFE9C
:10235000012201210020FFF7B7FE0E4801460020B0
:10236000FFF776FE42F280512020FFF789FE0A48EF
:102370002021FFF735FE44F67F77C0F2120700BF39
:1023800000BF7F1EFDD100BF00BF00BFDDF800E031
:1023900001B07047042200000000002081B0CDF899
:1023A00000E01E23192205490548FFF7FFFDFFF74E
:1023B000ADFEDDF800E001B0704700BFF42700007B
:1023C0003427000081B04FF000094FF0000CBDEB46
:1023D0000A0F04DCBDEB0B0F01DBD446EA464BF8D9
:1023E000049BBBEB0A0FFAD1BCEB0A0F05DDE246FA
:1023F000D9F800B00BF1040BF1E701B07047FFFF13
:1024000081B0FEE701B0704781B002490248016027
:1024100001B0704740190100B400002081B000F005
:102420000FF800F043FAFFF7EFFF00F0F1F9FFF7C4
:1024300087FFFFF7B3FFFFF7E7FEFCE7FEE7FFFFCD
:1024400081B0CDF800E0464A464B474C47494BF631
:102450008030814206D94648006840F00201444875
:10246000016011E045F6C050814206D9404800683D
:1024700040F001013E48016006E03D4801686FF010
:10248000070001403A480160FFF77CFE39480360CD
:1024900039480460394802EA00013948016002F015
:1024A000010040B119463648006800F002000028DB
:1024B00000D1F8E700E0194602F4803040B10B4645
:1024C0002F48006800F40030002800D1F8E700E051
:1024D0000B4602F0805068B12948006840F08051F6
:1024E000274801602648006800F00050002800D10D
:1024F000F8E7FFE702F0806078B12148006840F01B
:1025000080611F48016011461A461D48006800F0AE
:102510000060002800D1F8E701E011461A4601F0FA
:10252000807070B11648006840F0807114480160F6
:1025300011461348006800F0007000B9F9E70A4638
:10254000FFE70C48006800F00C01900000F00C0060
:10255000814200D0F5E7DDF800E001B0704700BF30
:102560008100010502841D0044060100401901009C
:1025700000200240041002402C100240FFFF0F0018
:10258000001002401600000017000000FFFFFFFFD0
:10259000000000000000000000000000000000003B
:1025A000000000000000000000000000000000002B
:1025B00000000000000000002808000028080000BB
:1025C000000000000000000000000000000000000B
:1025D00000000000000000000000000000000000FB
:1025E00000000000000000000000000002000000E9
:1025F000090000000A000000FFFFFFFF00000000CC
:1026000000000000000000000000000000000000CA
:1026100000000000000000000000000000000000BA
:102620000000000018080000180000000000000072
:10263000000000000000000000000000000000009A
:10264000000000000000000000000000000000008A
:102650000000000000000000040000003500000041
:1026600036000000FFFFFFFF000000000000000038
:10267000000000000000000000000000000000005A
:10268000000000000000000000000000000000004A
:102690001808000018000000000000000000000002
:1026A000000000000000000000000000000000002A
:1026B000000000000000000000000000000000001A
:1026C0000000000008000008380000003900000089
:1026D000FFFFFFFF000000000000000000000000FE
:1026E00000000000000000000000000000000000EA
:1026F00000000000000000000000000018080000BA
:1027000018000000000000000000000000000000B1
:1027100000000000000000000000000000000000B9
:1027200000000000000000000000000000000000A9
:10273000300014081502000005020000F501000039
:10274000450200003502000025020000E5010000FE
:10275000A50100009501000085010000D5010000E1
:10276000C5010000FFFFFFFFFFFFFFFFFFFFFFFFAF
:10277000FFFFFFFFFFFFFFFFFFFFFFFFFFFFFFFF69
:10278000FFFFFFFFFFFFFFFFFFFFFFFFFFFFFFFF59
:10279000FFFFFFFF2D2D2D2053797374656D206988
:1027A0006E6974202D2D2D004D61676E657420615A
:1027B000786973202D2D20583A0020593A00205A6C
:1027C0003A002000416363656C2061786973202DB5
:1027D0002D20583A0020593A00205A3A0020002073
:1027E00000000000000102030401020304060708C0
:1027F00009FFFFFFA5120000811200000113000075
:1028000000000000000000000000000002040608B4
:1028100000B5DFF824B0DFF824A0DFF824C0FFF70C
:10282000E7FCDFF820B0DFF820A0DFF820C0FFF7DA
:10283000DFFC00BD704700BF000000204D000020FD
:1028400094270000500000205C00002000280000B9
:10285000FFFFFFFFFFFFFFFFFFFFFFFFFFFFFFFF88
:10286000FFFFFFFFFFFFFFFFFFFFFFFFFFFFFFFF78
:10287000FFFFFFFFFFFFFFFFFFFFFFFFFFFFFFFF68
:10288000FFFFFFFFFFFFFFFFFFFFFFFFFFFFFFFF58
:10289000FFFFFFFFFFFFFFFFFFFFFFFFFFFFFFFF48
:1028A000FFFFFFFFFFFFFFFFFFFFFFFF00B5DFF8A8
:1028B00010B0DFF810A0FFF785FD00BD704700BF26
:1028C00000000020E0000020FFFFFFFFFFFFFFFFF0
:00000001FF
